:100000000C9456000C9473000C9473000C947300C1
:100010000C9473000C9473000C9473000C94730094
:100020000C9473000C9473000C9473000C94730084
:100030000C9473000C9473000C9473000C94730074
:100040000C9473000C9473000C9473000C94730064
:100050000C9473000C9473000C9473000C94730054
:100060000C9473000C9473000C9473000C94730044
:100070000C9473000C9473000C9473000C94730034
:100080000C9473000C9473000C9473000C94730024
:100090000C9473000C9473000C9473000C94730014
:1000A0000C9473000C9473000C94730011241FBE05
:1000B000CFEFDAE0DEBFCDBF12E0A0E0B1E0EEE5C9
:1000C000FEE002C005900D92AC31B107D9F712E005
:1000D000ACE1B2E001C01D92A832B107E1F70E9485
:1000E00081000C942D070C940000E1E6F0E080E81C
:1000F0008083108285BF85BF0E9476010E94AF0178
:1001000008954F925F926F927F928F929F92AF92DB
:10011000BF92CF92DF92EF92FF920F931F93CF93F4
:10012000DF930E94750020E030E040E951E00AC012
:10013000FA013197F1F70197D9F72F5F3F4F23303D
:10014000310519F080E197E2F3CF86E292E06CE1AD
:1001500072E00E94CE016E9A76988EE192E060E2A3
:1001600072E00E94CE01C0902002D0902102409007
:100170001C0250901D0200911E0210911F02C0919E
:100180002602D091270238016C1A7D0AB301882714
:1001900077FD8095982F0E94810420E030E04AE7A7
:1001A00054EC0E94D5032091220230912302409109
:1001B0002402509125020E94A8039B01AC01609388
:1001C00022027093230280932402909325020C173D
:1001D0001D07ACF48091000190910101EE24FF24F1
:1001E000E81AF90A809002019090030160910401DD
:1001F00070910501A0900601B090070114C0809194
:10020000080190910901EE24FF24E81AF90A809070
:100210000A0190900B0160910C0170910D01A0906A
:100220000E01B0900F0180911201909113018C0F7B
:100230009D1F081719075CF480911001909111011E
:10024000C81BD90BC017D10714F4EE24FF24C4181F
:10025000D5086C9D80016D9D100D7C9D100D1124A5
:10026000CA01B9010E94DF04869EC001879E900DDD
:10027000969E900D1124080F191FE69CC001E79C63
:10028000900DF69C900D1124800F911FB5010E94D6
:10029000CF06CB010E94530160CF4698479808953E
:1002A000469A479A089597FF07C022273327281BAD
:1002B000390B469A479A03C0469847989C0181E4B7
:1002C00092E0AC01249FC001259F900D349F900DBA
:1002D00011248F59994D9093890080938800232B86
:1002E00021F4109289001092880008953E9A3F9A56
:1002F000E1E8F0E080818B7F808380818D7F808347
:100300008081816080838FEF9FEF9093870080933F
:100310008600808180618083808188608083E0E8BE
:10032000F0E080818260808380818E7F8083808105
:100330008068808380818F7B8083109289001092F7
:100340008800259A80818F7D808380818F7E808345
:100350008081877F808380818B7F80830895ECE715
:10036000F0E080818F77808380818F7B8083AAE714
:10037000B0E08C9184608C938C9182608C938C9192
:1003800081608C93EEE7F0E08081806180838081E2
:10039000806280838C918F7D8C930895FC01DB01BA
:1003A00080917B008F7D80937B0080917C008460B6
:1003B00080937C0080917C008D7F80937C00809175
:1003C0007C008E7F80937C0080917A00806880938F
:1003D0007A0080917A00806480937A0080917A001C
:1003E00084FFFCCF80917800909179009183808385
:1003F00080917A00806180937A0080917B008F7D6C
:1004000080937B0080917C00846080937C0080914D
:100410007C008D7F80937C0080917C008160809344
:100420007C0080917A00806880937A0080917A00C5
:10043000806480937A0080917A0084FFFCCF809161
:100440007800909179008D939C9380917A008061DF
:1004500080937A000895A0E0B0E0E1E3F2E00C942C
:10046000F606DC012B01FA019C91923008F439C1A7
:10047000EB018881823008F433C1943069F4843010
:1004800009F02FC111969C9111978981981709F451
:1004900028C1A4E1B1E025C1843009F421C1823032
:1004A000A9F4923009F01DC19A01AD0188E0EA017A
:1004B0000990AE01E90109929E018150C1F7E20164
:1004C000898111969C918923818308C1923009F416
:1004D00007C112962D903C901397EB018A819B8166
:1004E0001496AD90BD90CD90DC901797EC80FD8078
:1004F0000E811F819101281B390BB90137FF04C000
:1005000066277727621B730B603271050CF061C0A0
:10051000121613066CF537014801062E04C0969496
:100520008794779467940A94D2F721E030E040E012
:1005300050E004C0220F331F441F551F6A95D2F7A5
:1005400021503040404050402E213F214023512334
:10055000211531054105510521F021E030E040E051
:1005600050E079018A01E628F728082919293CC0BA
:10057000232BD1F1260E371E35014601062E04C06D
:1005800096948794779467940A94D2F721E030E0A8
:1005900040E050E004C0220F331F441F551F6A95EE
:1005A000D2F721503040404050402A213B214C217D
:1005B0005D21211531054105510521F021E030E093
:1005C00040E050E059016A01A628B728C828D92878
:1005D0000BC0821593052CF01C01AA24BB246501D5
:1005E00003C0EE24FF24870111969C91D20111963D
:1005F0008C91981709F445C0992339F0A801970107
:100600002A193B094C095D0906C0A60195012E195E
:100610003F09400B510B57FD08C0118233822282E3
:1006200024833583468357831DC081E081833382D1
:10063000228288279927DC01821B930BA40BB50B20
:1006400084839583A683B7830DC0220F331F441F75
:10065000551F248335834683578382819381019775
:10066000938382832481358146815781DA01C901D0
:100670000197A109B1098F5F9F4FAF4FBF4328F387
:100680000BC0918333822282EA0CFB1C0C1D1D1DC2
:10069000E482F5820683178383E080832481358199
:1006A0004681578157FF1AC0C901AA2797FDA09517
:1006B000BA2F81709070A070B0705695479537959D
:1006C0002795822B932BA42BB52B84839583A6830C
:1006D000B78382819381019693838283DF0101C076
:1006E000D201CD01CDB7DEB7E2E10C941207A0E252
:1006F000B0E0EDE7F3E00C94020769837A838B8323
:100700009C832D833E834F835887E9E0EE2EF12CA6
:10071000EC0EFD1ECE010196B7010E9457068E0118
:100720000F5E1F4FCE010596B8010E9457068A89B9
:1007300091E089278A8BC701B801AE01475E5F4F00
:100740000E942B020E948205A096E6E00C941E07F0
:10075000A0E2B0E0EEEAF3E00C94020769837A834A
:100760008B839C832D833E834F835887F9E0EF2E44
:10077000F12CEC0EFD1ECE010196B7010E9457062A
:100780008E010F5E1F4FCE010596B8010E945706DD
:10079000C701B801AE01475E5F4F0E942B020E9465
:1007A0008205A096E6E00C941E07A8E1B0E0EBED10
:1007B000F3E00C94FE0669837A838B839C832D83FC
:1007C0003E834F835887B9E0EB2EF12CEC0EFD1ED3
:1007D000CE010196B7010E9457068E010F5E1F4F92
:1007E000CE010596B8010E9457062985223008F4EB
:1007F0007EC03989323010F4B8017CC08A859A896C
:1008000089278A87243011F0223031F4231709F028
:100810006EC064E171E06EC0343039F41D861E860E
:100820001F86188A1C861B8604C0323021F484E09F
:100830008987B7015FC02B853C858B899C89281BE4
:10084000390B3C872B87ED84FE840F851889AD8892
:10085000BE88CF88D88CEA14FB040C051D0540F433
:10086000EE0CFF1C001F111F215030403C872B87CE
:1008700020E030E040E050E080E090E0A0E0B0E434
:1008800060E070E0EA14FB040C051D0540F0282B25
:10089000392B4A2B5B2BEA18FB080C091D09B6956E
:1008A000A79597958795EE0CFF1C001F111F6F5F92
:1008B0007F4F6F31710531F7DA01C9018F77907081
:1008C000A070B07080349105A105B10561F427FDD9
:1008D0000AC0E114F1040105110529F0205C3F4F25
:1008E0004F4F5F4F20782D873E874F87588BBE0133
:1008F000675F7F4FCB010E9482056896EAE00C9407
:100900001A07A8E0B0E0E7E8F4E00C94FF069B01CA
:10091000AC0183E08983DA01C9018827B7FD83959B
:100920009927AA27BB27B82E211531054105510566
:1009300019F482E089833AC08823A9F0203080E04E
:10094000380780E0480780E8580729F460E070E045
:1009500080E09FEC30C0EE24FF248701E21AF30A06
:10096000040B150B02C079018A018EE1C82ED12C2F
:10097000DC82CB82ED82FE820F831887C801B7012B
:100980000E94330501971816190684F4082E04C036
:10099000EE0CFF1C001F111F0A94D2F7ED82FE829D
:1009A0000F831887C81AD90ADC82CB82BA82CE019B
:1009B00001960E9482052896E9E00C941B07ACE0A2
:1009C000B0E0E5EEF4E00C94060769837A838B834C
:1009D0009C83CE010196BE016B5F7F4F0E9457063C
:1009E0008D81823061F1823050F1843021F48E812A
:1009F000882351F12EC02F81388537FD20C06E81AC
:100A00002F3131051CF06623F9F023C08EE190E010
:100A1000821B930B29853A854B855C8504C05695CE
:100A20004795379527958A95D2F76623B1F050956B
:100A30004095309521953F4F4F4F5F4F0EC020E0BE
:100A400030E040E050E009C02FEF3FEF4FEF5FE7AD
:100A500004C020E030E040E050E8B901CA012C9623
:100A6000E2E00C942207EF92FF920F931F937B0119
:100A70008C0180E0E81680E0F80681E0080780E05D
:100A8000180788F48FEFE816F1040105110531F01D
:100A900028F088E090E0A0E0B0E017C080E090E0AF
:100AA000A0E0B0E012C080E0E81680E0F80680E048
:100AB000080781E0180728F088E190E0A0E0B0E0A6
:100AC00004C080E190E0A0E0B0E020E230E040E04F
:100AD00050E0281B390B4A0B5B0B04C01695079599
:100AE000F794E7948A95D2F7F701E45EFE4F808190
:100AF000281B310941095109C9011F910F91FF902C
:100B0000EF900895DF92EF92FF920F931F93FC01F5
:100B1000E480F58006811781D1808081823048F49D
:100B200080E090E0A0E1B0E0E82AF92A0A2B1B2B34
:100B3000A5C0843009F49FC0823021F4EE24FF2444
:100B4000870105C0E114F1040105110519F4E0E085
:100B5000F0E096C0628173819FEF623879070CF0F4
:100B60005BC022E83FEF261B370B2A3131052CF002
:100B700020E030E040E050E02AC0B801A701022E9A
:100B800004C076956795579547950A94D2F781E00A
:100B900090E0A0E0B0E004C0880F991FAA1FBB1F1F
:100BA0002A95D2F70197A109B1098E219F21A0238F
:100BB000B1230097A105B10521F081E090E0A0E00C
:100BC000B0E09A01AB01282B392B4A2B5B2BDA01C1
:100BD000C9018F779070A070B07080349105A10525
:100BE000B10539F427FF09C0205C3F4F4F4F5F4FDD
:100BF00004C0215C3F4F4F4F5F4FE0E0F0E02030FA
:100C0000A0E03A07A0E04A07A0E45A0710F0E1E0AC
:100C1000F0E079018A0127C06038710564F5FB01B5
:100C2000E158FF4FD801C7018F779070A070B07066
:100C300080349105A105B10539F4E7FE0DC080E4CB
:100C400090E0A0E0B0E004C08FE390E0A0E0B0E06E
:100C5000E80EF91E0A1F1B1F17FF05C01695079502
:100C6000F794E794319687E016950795F794E79403
:100C70008A95D1F705C0EE24FF248701EFEFF0E05D
:100C80006E2F679566276795902F9F77D794DD2401
:100C9000D7948E2F8695492F462B582F5D29B70163
:100CA000CA011F910F91FF90EF90DF900895FC0112
:100CB000DB01408151812281622F6F7770E0221F1A
:100CC0002227221F9381892F880F822B282F30E023
:100CD000991F9927991F11969C93119721153105FA
:100CE000A9F5411551056105710511F482E037C080
:100CF00082E89FEF13969C938E9312979A01AB0113
:100D000067E0220F331F441F551F6A95D1F783E018
:100D10008C930DC0220F331F441F551F12968D91C7
:100D20009C911397019713969C938E931297203062
:100D300080E0380780E0480780E4580758F31496AD
:100D40002D933D934D935C93179708952F3F310555
:100D500079F4411551056105710519F484E08C930E
:100D6000089564FF03C081E08C9312C01C9210C0F0
:100D70002F57304013963C932E93129783E08C9319
:100D800087E0440F551F661F771F8A95D1F770645F
:100D900014964D935D936D937C931797089597FBED
:100DA000092E07260AD077FD04D00CD006D00020EB
:100DB0001AF4709561957F4F0895F6F79095819597
:100DC0009F4F0895AA1BBB1B51E107C0AA1FBB1F61
:100DD000A617B70710F0A61BB70B881F991F5A95C7
:100DE000A9F780959095BC01CD0108952F923F926F
:100DF0004F925F926F927F928F929F92AF92BF922B
:100E0000CF92DF92EF92FF920F931F93CF93DF93D6
:100E1000CDB7DEB7CA1BDB0B0FB6F894DEBF0FBE33
:100E2000CDBF09942A88398848885F846E847D8480
:100E30008C849B84AA84B984C884DF80EE80FD8082
:100E40000C811B81AA81B981CE0FD11D0FB6F894F8
:0E0E5000DEBF0FBECDBFED010895F894FFCFB9
:100E5E000C0005000B000A000C0005000B000A0038
:100E6E000A000A000000000000000000000102025B
:100E7E000303030304040404040404040505050524
:100E8E000505050505050505050505050606060600
:100E9E0006060606060606060606060606060606E4
:100EAE0006060606060606060606060607070707D0
:100EBE0007070707070707070707070707070707B4
:100ECE0007070707070707070707070707070707A4
:100EDE000707070707070707070707070707070794
:100EEE000707070707070707070707070808080880
:100EFE000808080808080808080808080808080864
:100F0E000808080808080808080808080808080853
:100F1E000808080808080808080808080808080843
:100F2E000808080808080808080808080808080833
:100F3E000808080808080808080808080808080823
:100F4E000808080808080808080808080808080813
:100F5E000808080808080808080808080808080803
:0C0F6E0008080808080808080808080817
:00000001FF
